:100000000DC3000043C3000041C300003FC3000014
:100010003DC300003BC3000039C3000037C30000EC
:1000200035C3000033C300000C9483250C946B2669
:100030000C9438252BC3000029C3000027C30000FF
:1000400025C3000023C3000021C300001FC300001C
:100050001DC300000C945F2519C3000017C30000E6
:1000600015C3000013C3000011C300000FC300003C
:100070000DC300000BC3000009C3000007C300004C
:1000800005C3000003C3000001C30000FFC200005D
:10009000FDC20000FBC20000F9C20000F7C2000070
:1000A000F5C20000F3C20000F1C200000501090220
:1000B000A10185020901A1000509190129081500FE
:1000C0002501950875018102050109300931158165
:1000D000257F95027508810609381581257F9501D0
:1000E00075088106050C0A38021581257F95017572
:1000F000088106C0C005010980A10185031A81009D
:100100002A8F00168100268F00950175108100C08E
:10011000050C0901A101850419012AA00215012677
:10012000A002950175108100C00660FF0961A10160
:100130000962150026FF00952075088102096315E4
:100140000026FF00952075089102C005010906A14F
:1001500001050719E029E7150025019508750181BA
:10016000029501750881010507190029FF15002670
:10017000FF0095067508810005081901290515007D
:100180002501950575019102950175039101C0093D
:10019000025B00030100A0FA090400000103010151
:1001A0000009211101000122440007058103080014
:1001B00001090401000203000000092111010001EE
:1001C0002222000705820320000107050303200007
:1001D00001090402000103000000092111010001CE
:1001E000227D0007058403200001120100020000A7
:1001F0000008F1F11503010001020001120357008C
:1002000069006E0072007900330031003500000093
:100210000C03570069006E007200790000000403AF
:1002200009041E001F0020002100220023002400DA
:1002300025002600270029412B002C002A00280039
:10024000A800AE004A00000000000000000000000E
:10025000000043784578477849784B784478467869
:1002600048784A784C780100427840784178437861
:10027000437844784278000000000000000000004D
:100280000000010001000100010001000100010067
:100290000100010001000100010001000100010056
:1002A000010001000100000000000000000000004B
:1002B0000000010001000100010001000100010037
:1002C0000100010001000100010001000100010026
:1002D000010001000100000000000000000000001B
:1002E0000000010001000100010001000100010007
:1002F00001000100010001000100010001000100F6
:1003000001000100010000000000000000000000EA
:1003100000000100010001000100010001000100D6
:1003200001000100010001000100010001000100C5
:1003300001000100010000000000000000000000BA
:1003400000000100010001000100010001000100A6
:100350000100010001000100010001000100010095
:10036000010001000100000000000000000000008A
:100370000000010001000100010001000100010076
:100380000100010001000100010001000100010065
:10039000010001000100000000000000000000005A
:1003A00000004E004B00A900AA0049784A78457821
:1003B000467847784878AB00AC00010001000100A6
:1003C0000100010001000100010001000100010025
:1003D0000100010001000100010001000100010015
:1003E0000100010001000100010001000100010005
:1003F00001000100010001000100010001000100F5
:1004000001000001010101010101010102020202DA
:1004100002020202020303030303030303040404AE
:100420000404040405050505050606060606070777
:1004300007070708080808090909090A0A0A0B0B2F
:100440000B0C0C0C0D0D0D0E0E0E0F0F0F101011CE
:100450001111121213131414151516161717181854
:1004600019191A1A1B1B1C1D1D1E1E1F20202122BC
:1004700022232424252626272829292A2B2C2D2D02
:100480002E2F30313232333435363738393A3B3C1F
:100490003D3E3F404142434445464748494A4C4D12
:1004A0004E4F50515354555658595A5B5D5E5F61DB
:1004B0006264656668696B6C6D6F7072737577786E
:1004C0007A7B7D7E8082838587888A8C8E8F9193CC
:1004D0009596989A9C9EA0A2A3A5A7A9ABADAFB1F3
:1004E000B3B5B7BABCBEC0C2C4C6C9CBCDCFD1D4D8
:1004F000D6D8DBDDDFE2E4E7E9EBEEF0F3F5F8FA7E
:10050000FDFF060B0C1112070A0D101308090E0F40
:1005100014020004FFFFFFFFFFFF400735072A0812
:100520001C08120706070321033003401340133051
:1005300013212321233023403340333033214321FF
:10054000433043403A420C42042C00034603422C01
:10055000010101010101040404040404040404046D
:10056000040404040402020202020200000000006B
:10057000000000000000000000000000000000007B
:100580000000000000000000000000000000007EED
:100590000F00D4FFFFFFC70000007800000000003C
:1005A0000000002A2B2800000000000000000000CE
:1005B00000000000000029000000002C1E34202153
:1005C0002224342627252E362D3738271E1F20219A
:1005D00022232425263333362E37381F04050607F9
:1005E00008090A0B0C0D0E0F101112131415161713
:1005F00018191A1B1C1D2F3130232D350405060731
:1006000008090A0B0C0D0E0F1011121314151617F2
:1006100018191A1B1C1D2F3130354C0011241FBE18
:10062000CFEFDAE0DEBFCDBF04B603FE18C0809185
:10063000A5039091A603A091A703B091A8038730CA
:10064000904BA740B04B59F41092A5031092A6030B
:100650001092A7031092A803E0E0F8E3099511E0D7
:10066000A0E0B1E0E2ECF0E502C005900D92A63CFE
:10067000B107D9F723E0A6ECB1E001C01D92A53A7D
:10068000B207E1F70E94231E0C94DE27B9CC8093B9
:100690005E03089580935F03089521E030E001C078
:1006A000220F8A95EAF780915F03822BF3CF21E036
:1006B00030E0A90102C0440F551F8A95E2F7CA0134
:1006C000809590915F038923E5CF9B01677091E04E
:1006D00001C0990F6A95EAF763E0369527956A9508
:1006E000E1F7B901660F771F260F371FFA01E20FF6
:1006F000F31F40E050E0682F70E08191DF01119717
:100700009B01042E02C0369527950A94E2F72170CA
:1007100021952827292328272C934F5F5F4F4330AB
:10072000510559F708959C01A82FA77083E03695CD
:1007300027958A95E1F7C901880F991F820F931FAA
:10074000FB01E80FF91F40E050E080E0219130E02C
:100750000A2E02C0369527950A94E2F721703327B6
:10076000042E01C0220F0A94EAF7822B4F5F5F4FDD
:100770004330510559F70895282F862F911107C04E
:10078000622F70E047E453E0283140F008959C5F09
:100790009230E0F7622F70E044E453E096DFF6CF4A
:1007A000282F892F911105C067E473E0283130F0BC
:1007B00008958C5F823028F464E473E0822F90E027
:1007C000B2CF80E0F5CF90915F0321E030E0F901F6
:1007D00001C0EE0F8A95EAF7D90102C0AA0FBB1F2C
:1007E0006A95E2F7EA2B01C0220F4A95EAF7892FB2
:1007F0008E23E81303C0892F822B4CCF2095822FA4
:100800008923FBCF8091650390916403981301C005
:1008100008958F5F8770FACF909160038095892348
:1008200080936003282F277021110CC0891751F085
:100830009091620392FF06C086958695869537DF74
:10084000109260030895982F909580915B038923FF
:1008500080935B030895803E9105D1F1C8F4813304
:10086000910509F47FC048F48932910509F46FC0FD
:100870008A32910509F47DC0089589339105E1F02C
:1008800082389105C9F08533910509F45BC008955C
:10089000843E9105D1F148F4823E910531F1833EC9
:1008A000910541F181EE90E00895863E9105C1F1F8
:1008B000873E9105E1F10895209161032370211194
:1008C00065C02091620323FF14C089E290E008957F
:1008D0002091610320FD43C03091620330FF09C0C5
:1008E00024FF4EC080E090E008952091610322FD36
:1008F000F7CF08952091610322FD45C03091620336
:1009000030FD44C024FFF5CFEDCF2091620321FFDD
:10091000F0CF8091610384FDE5CF87EE90E00895EC
:100920002091610323FFE5CF24FDDCCFF6CF20919A
:10093000610323FD2EC03091620331FFE3CF84EECB
:1009400090E008952091610325FFD3CFBECF209181
:10095000610325FD21C02091620323FFCACF89E3F3
:1009600090E008952091610326FFC3CF8AE290E0D2
:1009700008952091610326FFBCCF81E390E00895A4
:1009800083EE90E0089582EE90E0089580EE90E08E
:10099000089586EE90E0089585E390E0AACF9091C7
:1009A000610392FF10C041E0282F2471243009F028
:1009B00040E031E0282F2871283009F030E043175B
:1009C00011F02CE0822793FF10C041E0282F247102
:1009D000243109F040E031E0282F2871283109F056
:1009E00030E0431711F02CE082273091620330FF92
:1009F00010C051E0282F2171213009F050E041E072
:100A0000282F2871283009F040E0541711F029E010
:100A1000822731FF10C041E0282F2171213109F0D8
:100A200040E031E0282F2871283109F030E04317E9
:100A300011F029E0822794FF02C083FD877E08958C
:100A40001F93CF93DF9307DFEC01811522E5920717
:100A500008F050C0811540E5940708F0D9C0803EE9
:100A60009105F8F48D3C910508F0ABC0883A9105EA
:100A700080F4853A910508F096C08130910521F007
:100A80000497813A910550F4CE01DF91CF911F91E7
:100A90000895885A91094B9708F488C0C0E0D0E0C7
:100AA000F3CF811550E49507E8F4C11580E2D8072B
:100AB00008F0C7C0C83ED10538F3CE019A9581151C
:100AC0009F4160F78D2F6BDF182FCE019927C3DE72
:100AD000212F30E0322F2227E901CC27DF71C82BEC
:100AE000D92BD2CF9927B7DECC27DF70C82BD92BD3
:100AF000D06ACACF803842E59407C8F5803652E5FF
:100B0000950708F067C0C03482E5D807B0F08C2F95
:100B100086958695877020E2829FC0011124C3705C
:100B200021E030E0A90102C0440F551FCA95E2F749
:100B3000EA01C82BD92BDC68A7CFC03252E5D50714
:100B400008F041C08C2F8695869520E2829FC001D7
:100B50001124C37021E030E0A90102C0440F551FE9
:100B6000CA95E2F7EA01C82BD92BDD688DCF803C0E
:100B700052E5950760F48F71C03AD24508F03FC046
:100B800090E0982F8827EC01C46FD06A7DCF805CFD
:100B90009245809708F082CFDC2FCC27CC27DF71DD
:100BA000C06FD06A71CFA497D0646ECFC85AD0E01E
:100BB000CC0FDD1FC65ADE4F0990D881C02DD464FA
:100BC00063CFD06561CFCF71D0E0DC2FCC27C16F70
:100BD000D06A5ACF86958695877020E2829FC001A1
:100BE0001124C37021E030E0A90102C0440F551F59
:100BF000CA95E2F7EA01C82BD92BDA6845CFCFDED8
:100C0000C82FD0E0DC2FCC27CC27DF71D0623CCFBF
:100C10008F71C5DE65E0D695C7956A95E1F7CF700F
:100C2000D0E0DC2FCC27282F30E084FF06C054E032
:100C3000220F331F5A95E1F73327C22BD32BD069EC
:100C400023CF8D2F8F71ABDE182FCE01992703DEB6
:100C5000212F30E0322F222722273F71282B392BDA
:100C6000E901D4CF80E00895A0E0B0E0EAE3F6E047
:100C70000C940E27E82FF0E0EE5FFB4F711109C0D6
:100C8000E4918E2F7E2F6E2FCDB7DEB7E8E00C9467
:100C90002A27262F30E0C72FD0E0F491EF2F86E0EF
:100CA000829F8001839F100D1124EE24EA94F12C81
:100CB000C801B7010E94B426AB01220F331F65E5BE
:100CC000649FC001659F900D1124281B390B822F52
:100CD000880F280FC7018C1B9D0BF89FD001F99F2F
:100CE000B00D11248B2F2C9FB0012D9F700D11245E
:100CF000672F77276701C61AD70AB601F69F6001EA
:100D0000F79FD00C1124B701621B71099B012C9F26
:100D1000B0012D9F700D3C9F700D1124672F772718
:100D20009701261B370BF29FE001F39FD00D112492
:100D30007D2F43305105C9F00C3F93E0190758F45B
:100D400041305105B1F04230510509F09CCFEB2FF5
:100D50008D2F7F2F98CF4430510571F046305105CB
:100D600009F491CF7B2F8D2D8ECF7D2DEB2F8F2FE3
:100D70008ACF7F2FED2D87CFED2F7B2FF8CF9A01D4
:100D80004115514010F02FEF30E0209530E4239FC3
:100D9000020E20E0211D1124620F0895EF92FF92B0
:100DA0000F93970195E0099F200D311D1124211506
:100DB00091E0390710F02FEF30E02095382F320FF7
:100DC00008F43FEF832F0F91FF90EF900895EF927B
:100DD000FF920F939701201B3109211541E0340741
:100DE00010F02FEF30E0322F3095482F430F08F4EA
:100DF0004FEF842F620F0F91FF90EF900895909125
:100E00004E02982B90934E02089530C1089539C137
:100E10000895EFE2F3E0908121E092279083109211
:100E20001301EDCF80912F038370811102C01092C6
:100E3000130180912F038C7F816080932F0308958D
:100E400080912F03837081111092130180912F03E1
:100E50008C7F80932F030895982F862F20912F0346
:100E60002370211581F0911579F0953078F49F73F6
:100E7000990F990F20912F032370922B90932F039A
:100E800010921301BCCF089591E0F2CF94E0F0CF1F
:100E900080912F03869586958F5F853008F081E0DD
:100EA00061E0DACF80912F03869586958A9509F4C3
:100EB00084E061E0D1CF982F822F20912F032370FF
:100EC000211551F09093300360933103473908F0B6
:100ED00046E94093320393CF0895EFE2F3E0818136
:100EE00090E021E0438162810896E5CFEFE2F3E0F4
:100EF000818121E0438162818850990BDCCFEFE250
:100F0000F3E0628120E1620F08F46FEF818121E05C
:100F1000438190E0D0CFEFE2F3E0628120E1621BF9
:100F200008F460E0818121E0438190E0C4CFEFE2EA
:100F3000F3E0438120E1420F08F44FEF818121E08B
:100F4000628190E0B8CFEFE2F3E0438120E1421B01
:100F500008F440E0818121E0628190E0ACCFEFE2D3
:100F6000F3E0248130E1230F08F42FEF248381E0A4
:100F700046CFEFE2F3E0248130E1231B08F420E0C8
:100F8000248381E03CCFE0913403EF3F69F0E5300A
:100F900069F0E23069F4EF5FF0E0E25DFE4F8081DE
:100FA0008093340381E02BCFE0E0F5CFE1E0F3CF95
:100FB000E0E0F2CFE0913403EF3F91F0E53071F0E3
:100FC000E23019F0E1110EC0E3E0E150F0E0E25D43
:100FD000FE4F80818093340381E011CFE1E0F5CFB3
:100FE000E3E0F4CFE0E0F2CF90E06115E9F0855D59
:100FF0009E4FFC0180818F3FB1F0E82FE295EF70AA
:10100000F0E041A18F7021E030E0B90102C0660F2D
:10101000771F8A95E2F7CB01962F9095942391A3A1
:1010200092A1892B82A30895885D9E4FE2CF90E024
:101030006115A9F0855D9E4FFC0120812F3F91F045
:10104000E22FE295EF70E05EF0E0808190E02F709B
:1010500002C0959587952A95E2F781700895885D7D
:101060009E4FEACF80E00895879A0895FC01EE0F25
:10107000FF1FE80FF91FE051FE4F61834083228379
:101080000895FF920F931F93CF93DF93182F062F8E
:10109000F42EC0E0D0E02F2D402F612FCE01E6DFEF
:1010A0002196CB31D105B9F7CDB7DEB7E5E00C9489
:1010B0002D27282F35EB2303C001112497FF04C0EF
:1010C00080589109892F089580589F4FFBCF8091B8
:1010D000520380FD14C081FD14C082FD16C08091B2
:1010E0005103811581F08E3180F420E5829FC0018B
:1010F00011246EE170E00E94C826862F089584E1D5
:10110000089588E2089588E0089580E50895809123
:10111000520380FD17C081FD17C082FD19C0809168
:101120005003811599F0883298F428E0829FC0011D
:10113000112468E270E00E94C8266115710551F023
:10114000862F089562E0FCCF64E0FACF61E0F8CF2B
:1011500068E0F6CF81E00895E0913A03F0913B0317
:10116000309739F00190F081E02D309711F009951A
:10117000089580E00895A3E0B0E0E1ECF8E00C947D
:1011800014279C018091EE019091EF018217930743
:10119000B1F03093EF012093EE01E0913A03F0912A
:1011A0003B03309761F00084F185E02D309739F0F2
:1011B00083E089833B832A83CE0101960995239698
:1011C000E2E00C943027A3E0B0E0E9EEF8E00C9404
:1011D00014279C018091EC019091ED0182179307F7
:1011E000B1F03093ED012093EC01E0913A03F091DE
:1011F0003B03309761F00084F185E02D309739F0A2
:1012000084E089833B832A83CE0101960995239646
:10121000E2E00C9430279C01FC0132968FEF90E0C5
:101220004191461751F08F3F19F4411101C0892FA8
:101230009F5F9630A9F78F3F09F40895280F311D5D
:1012400087FD3A95F901628308959C01FC0132966D
:10125000285F3F4F8191861303C0DF0111971C92D5
:10126000E217F307B9F708958091040108952FB7A5
:10127000F8948091E8019091E901A091EA01B09180
:10128000EB012FBF0895F3DF2091550330915603F2
:10129000232B211521F080932C0390932D03209173
:1012A000570330915803232B211521F080932A03F3
:1012B00090932B03E0913A03F0913B03309759F060
:1012C0000680F781E02D309731F082E08093530360
:1012D00083E593E009950895611509F441C0E3E3BE
:1012E000E80FE33148F4F0E0E052F84D0C94F726B3
:1012F000EEDE819580935603C6CFE9DEFBCFE7DEB5
:10130000819580935503F8CFE2DEFBCF00DF809319
:101310005703F2CFFCDE8195FACFF9DE81958093F9
:101320005803EACFF4DEFBCF815D990B21E030E07A
:1013300001C0220F8A95EAF780915403822B809393
:101340005403DACF80915203816080935203D4CF4B
:10135000809152038260F9CF809152038460F5CF6F
:10136000409155038D3C59F48091560387FF0DC081
:1013700010925603411559F41092510308C08E3C47
:1013800081F48091560318169CF3411581F08091E9
:10139000570390915803892B8111AECF10925003BF
:1013A000ABCF8F3C41F447FFF0CF109255038091B3
:1013B00056038115E0CF803D19F41416B4F3E5CF40
:1013C00090915703893D29F41916FCF610925703A2
:1013D000DCCF8A3D19F497FFD8CFF8CF909158030E
:1013E0008B3D29F497FFD1CF10925803CECF8C3D7F
:1013F00019F41916CCF3C9CF9FE2980F983090F4E6
:10140000815D990B21E030E0B90102C0660F771FC2
:101410008A95E2F7CB0180959091540389238093BC
:101420005403B3CF8D3D31F4809152038E7F80936E
:101430005203ABCF8E3D21F4809152038D7FF7CFC5
:101440008F3D09F0A2CF809152038B7FF0CF2FB751
:10145000F8946091E8017091E9018091EA0190911E
:10146000EB012FBF08950895FC019B018091DE01DF
:101470009091DF018617970740F0672B29F4809140
:10148000E8008E778093E800C90140E0009741F4BE
:10149000411106C08091E80082FF2FC080E00895CE
:1014A000209137032115A9F12530A9F12091E800F9
:1014B00023FD2DC02091E80022FDECCF2091E80013
:1014C00020FFE4CF3091F3002091F200009719F053
:1014D0002830310558F041E02830310509F040E06E
:1014E0002091E8002E772093E800D0CF41914093DF
:1014F000F10001972F5F3F4FE9CF809137038115AE
:1015000041F0853041F08091E80083FFC3CF81E056
:10151000089582E0089583E008958091D80187FFBF
:1015200013C08091E80082FF06C08091E8008B77AD
:101530008093E80004C0809137038111F2CF0895B1
:10154000809137038115D9F38091E80080FFF8CFAF
:101550008091E8008E77ECCF2091E4003091E50097
:1015600095E6A9018091EC008170811531F08091A0
:10157000E80080FF06C080E008952091E80022FD89
:101580001AC080913703811589F0853089F08091E8
:10159000EB0085FD0FC02091E4003091E50042177B
:1015A000530701F39A95E9F684E0089582E00895DF
:1015B00083E0089581E00895E8EDF0E080818E7F7A
:1015C00080831092E2001092DA001092E100A0EE07
:1015D000B0E08C9181608C9380818F77808319BC7F
:1015E000A7EDB0E08C918E7F8C9380818F7E80837D
:1015F0001092D7010895A6E0B0E0E1E0FBE00C9482
:101600000427182F69837A8380910001282F220FE5
:10161000280F220F2B8346E0942E920E792C3CE16A
:10162000931610F03BE1732E60904F025B81452FC3
:1016300050E05E834D83CA01880F991FDC01AD57CE
:10164000BD4F6D01812F90E0FC013196FC83EB834F
:10165000212C312C8D81871548F081E09BE1991672
:1016600008F080E02696E2E10C942027ED81FE81CF
:10167000EF52FD4F80819091010189238115E1F0A6
:1016800060913003709131032B813C81215B3D4F90
:101690005901812E80E08614C8F020913203382F42
:1016A000329F030E30E0311D1124832FDDDA472FE6
:1016B000282F8D819E81A9DB4D815E814F5F5F4F19
:1016C0005E834D8352E0C50ED11CC4CFD5019D91E0
:1016D0005D01F601208D422F491B550B2A01218DFA
:1016E00017969C91291B330B449CA001459C500DDF
:1016F000500D1124229FF001239FF00DF00D1124B5
:101700004E0F5F1F042F4230510534F1413E9EE1E0
:1017100059070CF040C0FA01B5E0F695E795BA9587
:10172000E1F798E09E0FFF24F394AF2DA90FBB279C
:10173000BB1FFD01F595E7950E2FEE9FD001EF9FA2
:10174000B00DB00D11244A175B0738F59FEF9E0FBF
:101750009F1558F70FEF0F0D90913303492F51E06C
:10176000450F08F44FEF942FF501EE0FFF1FEF54D4
:10177000F240458956897101499F040EE11C599F29
:10178000E00CF11C1124E50EF11CA201E981FA81A3
:101790000995839480CF9FEFC6CFEF3FE9F2FF24F6
:1017A000F394FE0ED5CFA0E0B0E0E9EDFBE00C94A1
:1017B0000827182F8091150191E081130BC08091AB
:1017C0002F0383702091140130E091E082171306FB
:1017D00009F490E09170909302018091340390910C
:1017E0000101981731F08093010140E060E080E052
:1017F0000EDB133009F4D8C000F5113051F112306E
:1018000009F465C080910201811509F415C140E019
:1018100060E080E0FCDA809100018F5F809300013E
:1018200082E08093130180910201811509F409C1BE
:10183000CDB7DEB7EEE00C942427143009F4C0C015
:101840001F3F09F4C8C0809100018F5F80930001A1
:10185000E8C080910001C82FCC0FC80FCC0F06E064
:101860000C0FC02E0C3110F05BE1C52E60913003DF
:101870007091310380913203F7D9F62EE72ED82EDE
:10188000D0E0CC15A0F081E00B3108F080E0909121
:1018900000019F5F909300018111CACF82E0809385
:1018A0001301809102018111C3CF1115BFCFFE0139
:1018B000EF52FD4F8081909101018923811529F01C
:1018C0002D2D4E2D6F2DCE01A0DA2196DACF8091ED
:1018D0000001C82FCC0FC80FCC0F06E00C0FD02E84
:1018E0000C3110F04BE1D42E2091330331E0230F63
:1018F00008F42FEF30E040E050E06FEF7FEF80E042
:1019000090E00E94DB267901D0E0A12CB12CC22E00
:101910009F2C4C2FCD1508F0B6CFFE01EF52FD4F96
:101920008081909101018923811549F180914F02B5
:101930008150082E000C990B87FF23C02C2D392DC8
:101940005091330341E0540F08F45FEFC501259F28
:10195000020E811D359F800D911D1124830F911D55
:10196000609030037090310380903203AC01882D79
:10197000B30105DA79D9472F282FCE0146DA21960F
:10198000C8CFFC01E15BFD4F218942130BC0FC0174
:10199000EE0FFF1FE15BFD4F218D328D2E153F05B0
:1019A00008F4CECF0197C8CF80914F0221E0382FA5
:1019B000321B08F430E0832F6EEC76E01CDE67CF3C
:1019C00080914F0221E0482F421B08F440E0842F11
:1019D00067EE76E0F3CF8091460290914702A091A6
:1019E0004802B09149022AE0B695A7959795879548
:1019F0002A95D1F783709927AA27BB2782309105B2
:101A0000A105B10591F083309105A105B10581F0E3
:101A100040E060E00197A105B10561F464E180E078
:101A2000F6D982E08093130103CF44E160E0F7CF61
:101A300044E164E184E1F4CF809100018F5F809301
:101A4000000183E0EFCF982FE42FE2709093E9003C
:101A5000891308C0762F242F50E0E11111C091E0C6
:101A6000980FF4CF7091EC002091ED005091F000B0
:101A700021FD06C09F5F973049F78093E9000895E4
:101A80003091EB003E7F3093EB003091ED003D7FD5
:101A90003093ED003091EB0031603093EB007093A8
:101AA000EC002093ED005093F0002091EE0027FD14
:101AB000E1CF0895A0E0B0E0E0E6FDE00C940E2751
:101AC000C8EDD0E088818F7E8883E7EDF0E08081EB
:101AD0008160808384E082BF81E08093D701888128
:101AE0008E7F888302EE10E0F80110821092DA00F7
:101AF00081EEC82ED12CF601108288818F778883E1
:101B000088818068888388818F7D888319BC109242
:101B100037031092D60110927A021092D50190EEFE
:101B2000E92EF12CF70180818B7F80838881816091
:101B3000888342E060E080E086DFF60180818E7F6E
:101B40008083F801808181608083808188608083C8
:101B5000F70180818E7F8083888180618883CDB703
:101B6000DEB7E8E00C942A27E091650390916403C6
:101B700027E0E91302C080E00895AE2FB0E02E9F69
:101B8000F0011124EA59FC4F3181361306C030812F
:101B9000381303C03581341304C0FD013196E7705A
:101BA000E8CF81E0089531B33F7721B320684FB784
:101BB000F89480EF91E0FC010196508168E021BB30
:101BC000000000C057FF31BB550F000000C000C02F
:101BD00000C031BB00C06A9591F752E0813495078F
:101BE00051F74FBF8FE594E00197F1F700C0000077
:101BF000089581E08093E00080E28093D800109205
:101C0000C9008FE19EE40197F1F700C0000087E072
:101C100090EBDC018093A5039093A603A093A70308
:101C2000B093A80388E19CE00FB6F894A895809340
:101C300060000FBE90936000FFCF0F931F93CF9370
:101C4000DF93EB018A0190913703943059F580932B
:101C5000E9008FEF9091E80095FD06C095ED9A950B
:101C6000F1F700008A95B1F78091E80085FF1AC06E
:101C700073DC811112C08091E80085FD06C080915F
:101C8000E8008E778093E800F3CF88818093F1009D
:101C90000150104011F02196EECF8091E8008E7730
:101CA0008093E800DF91CF911F910F910895792FD4
:101CB000603229F440E250E0682F82E0BECF089500
:101CC000CF93DF93D82FC92F48E050E0682F792FAA
:101CD00081E0B3DF88E0ED2FFC2FA0EEB1E00190B2
:101CE0000D928A95E1F7DF91CF910895BC0146E00E
:101CF00050E084E0A2CFBC0143E050E084E09DCFFF
:101D00009091620392FB222720F9281779F080FB3B
:101D100092F990936203609161037091620384E091
:101D200090E00E94DA2782E00C940C0408951F933F
:101D3000CF93DF93962F122F632F8830B0F4911139
:101D400014C0483190F4C42FD0E0CC0FDD1F90E3D5
:101D5000899FC00DD11D1124CE0189960E94C027F4
:101D6000612FCE018A960E94C027DF91CF911F91EB
:101D700008951F93CF93DF93C62F122F632F8830C0
:101D8000C8F4C330B8F494E0C99FE00111249CE08A
:101D9000899FC00DD11D1124C755DE4FCE014115BD
:101DA00069F00E94C02781E090E0612F8C0F9D1F99
:101DB0000E94C027DF91CF911F91089502960E9443
:101DC000C02783E090E0F1CFA0E0B0E0EAEEFEE0D3
:101DD0000C940E2782EAE82E83E0F82E02E212E04D
:101DE000C0E06801D0E0F601259135914D2F60E00B
:101DF0008C2F9DDF82E0C80ED11CDF5FD83199F7B0
:101E00006701D0E0F6012591359141E06D2F8C2FCF
:101E1000B0DFF60132962591359140E06D2F8C2F81
:101E2000A8DF84E0C80ED11CDF5FD33059F78CE007
:101E3000E80EF11CCF5F005D1F4FC83091F6CDB7A3
:101E4000DEB7E8E00C942A2780915B03909163034E
:101E5000892B40915C03411589F090E02AEC31E038
:101E6000F90150812F5F3F4F51119F5F51E0203D9D
:101E70003507B1F7911110925C03842B8093C80150
:101E800048E050E06CE373E088EC91E00E94662744
:101E9000892BB9F088E0E8ECF1E0ACE3B3E0019025
:101EA0000D928A95E1F7E0913A03F0913B03309768
:101EB00041F00280F381E02D309719F088EC91E039
:101EC00009950895CF9310925B03C6E0EAECF1E028
:101ED000DF018C2F1D928A95E9F780E090E04BD9C5
:101EE00080E090E070D910926303AEDFE3E5F3E0A9
:101EF000DF011D92CA95E9F7109251031092500329
:101F000010925203C0D9CF910895DCDF88E19CE0A4
:101F10000FB6F894A895809360000FBE9093600070
:101F2000FFCFAAE2B0E0E7E9FFE00C94132788EDC9
:101F300091E0FC0101962091F100208321E0803E98
:101F40009207B9F78091D901893009F457C0C8F4D4
:101F5000823009F4B2C0833009F482C0813081F14B
:101F60008091E80083FFE6C08091D8019091D9016B
:101F70009A3008F0DFC0E92FF0E0ED50F84D0C94F6
:101F8000F7268A3009F489C08B3051F78091D80147
:101F9000813231F78091DC019091DD01892B01F7CD
:101FA0008091E800877F8093E800B7DA81E0909124
:101FB000DA01911101C080E08093050183DFD0CF69
:101FC0008091D801813A61F68091E800877F809303
:101FD000E8008091DC019091DD01892B59F060E0EF
:101FE00080E090E070E040DA8091E8008B778093A9
:101FF000E800B6CF68E080EE91E0F4CF8091D801A0
:10200000813209F0ADCF8091DC019091DD018D7FAF
:10201000892B09F0A5CF8091E800877F8093E800A5
:102020008091E80082FF17C09091F3008091F20048
:10203000029731F48091F100813011F0863021F463
:102040008091F100809304018091E8008B77809368
:10205000E80063DA85CF809137038111E1CF80CF2B
:102060008091D801813A09F07BCF8091DC01909179
:10207000DD01892B09F074CF8091E800877F809380
:10208000E8008091E80080FFFCCF809105018093FB
:10209000F1008091E8008E77DACF8091D80181320B
:1020A00009F05ECF8091E800877F8093E80035DA01
:1020B0008091DB018093030153CF8091D801813A55
:1020C00009F04ECF8091E800877F8093E8008091EF
:1020D000E80080FFFCCF80910301D9CF803889F0E0
:1020E000823841F58091DC018F70873018F580933C
:1020F000E9008091EB0085FB882780F91092E900C8
:1021000006C08091D50190917A02911182609091E0
:10211000E800977F9093E8008093F1001092F1001F
:102120008091E8008E7723C0811116C08091DA017A
:10213000813009F18091E80083FF0AC08091E800B6
:10214000877F8093E8008091EB0080628093EB00B2
:10215000AA96E3E00C942F27823061F78091DA0190
:10216000811581F01092E9008091E800877F8093CB
:10217000E800D3D9DFCF81E0933009F080E080938D
:102180007A02F0CF8091DC018F702FEF280F26307C
:1021900088F68093E9002091EB0020FFE3CF933095
:1021A00031F48091EB0080628093EB00DBCF909163
:1021B000EB0090619093EB0021E030E0A90102C0B8
:1021C000440F551F8A95E2F74093EA001092EA0007
:1021D0008091EB008860E8CF8111ACCF1091DA01DB
:1021E0001F778091E3008078812B8093E3008091BA
:1021F000E800877F8093E80090D98091E80080FF15
:10220000FCCF8091E30080688093E30083E01111AC
:1022100001C082E0809337038DCF8058823008F070
:1022200089CF4091DA015091DB014C3D83E05807A2
:1022300091F583E08A838AE289834FB7F894DE01BF
:10224000139620E03EE051E2E32FF0E05093570078
:10225000849120FF03C082958F703F5F8F708A301A
:10226000C0F0895C90E08D939D932F5F243161F7DE
:102270004FBF8091E800877F8093E8006AE270E0BA
:10228000CE010196F1D88091E8008B778093E80029
:1022900051CF805DE7CF8091DC019091DD01252F4A
:1022A00033272330310509F449C078F52130310551
:1022B00009F478C08BE590E0EFE8F1E022303105D9
:1022C00009F038CF2091E800277F2093E800209183
:1022D000DE013091DF018217930708F49C0140E092
:1022E0002115310509F063C0411161C08091E800FA
:1022F00082FDC9CF80913703811529F2853019F20B
:102300008091E80083FFF2CFBECF21323105D9F1B1
:102310002232310509F00ECF8330910508F00ACF43
:10232000FC01EE0FFF1FE45EFE4F0190F081E02DF7
:10233000875E9E4FDC018C9190E011C0CA01992705
:10234000413089F082309105B1F0892B09F0F2CE4D
:10235000EEE1F2E0E4918E2F90E0EEE1F2E0009702
:1023600009F4E8CEAFCFE0E1F2E0E4918E2F90E007
:10237000E0E1F2E0F4CFECEFF1E0E4918E2F90E0B9
:10238000ECEFF1E0ECCF8330910508F0D3CEFC0107
:10239000EE0FFF1FEE5DFE4F0190F081E02D89E012
:1023A00090E090CF82E190E0EAEEF1E08BCF809177
:1023B0003703811509F467CF853009F464CF809124
:1023C000E80083FD60CF8091E80082FD8FCF80918F
:1023D000E80080FF85CF9091F3008091F2002115F5
:1023E000310519F08830910550F041E0089709F067
:1023F00040E08091E8008E778093E80071CF4491AF
:102400004093F1003196215031090196E8CF803890
:1024100009F090CE8091E800877F8093E80080915A
:10242000D6018093F1007CCE811184CE1091DA0127
:10243000123008F07FCE8091E800877F8093E8001B
:102440001093D6016AD81115D9F084E08093370330
:1024500042E061EC81E0F7DA42E261EC84E0F3DA39
:1024600042E261EC82E0EFDA42E260EC83E0EBDA38
:1024700080913703843051F482E0809306015ACE74
:102480008091E30087FDE1CF81E0E0CF81E0F5CFEF
:10249000CF93C82F8115A1F08CEF8C0F813A90F467
:1024A000EAECF1E08191C81709F43FC021E0E03D7A
:1024B000F207C1F76C2F88EC91E00E940B09C4DC95
:1024C000CF91089580E28C0F883068F4C77021E0C6
:1024D00030E001C0220FCA95EAF780915B03822B9E
:1024E00080935B03ECCF8BE58C0F833038F42C2F7B
:1024F0002452330BC9010E94BB08E2CFE8E5EC0F80
:10250000EB3150F4F0E0EE0FFF1FE057FE4F8081FB
:1025100091810E94E308D4CF83E38C0F833180F64E
:1025200061E08C2F0E946C09CBCF6C2F88EC91E07E
:102530000E94250989DCBECF811579F19CEF980FA7
:10254000913A30F4682F88EC91E00E9425097CCC08
:1025500090E2980F983050F4877091E001C0990F85
:102560008A95EAF7892F0E942304F1CF9BE5980F03
:10257000933020F480E090E00C94BB0898E5980F2D
:102580009B3120F480E090E00C94E30893E3980FF3
:10259000933118F460E00C946C0908951F93CF9365
:1025A000DF93182FEB0174DF209731F4812FC4DF04
:1025B000DF91CF911F9108958FE99FE00197F1F787
:1025C00000C000002197F0CF811531F090915B039E
:1025D000892B80935B0338CC0895811519F00E94F4
:1025E000230432CC0895EF92FF920F931F93CF9361
:1025F000DF93C62FD42F122F8115A1F060935903BA
:102600000E9437099093D4018093D301C77081E071
:1026100001C0880FCA95EAF7D7DFCDB7DEB7E6E08D
:102620000C942C2780915903681333C0E090D30198
:10263000F090D4010E9437098E199F09883C9105BA
:1026400040F5CD130CC06AE070E0812FA7DFD77092
:1026500081E001C0880FDA95EAF7BFDFDECFC770EF
:1026600001E0802F01C0880FCA95EAF7B6DF80E24B
:102670008D0F883048F48D2F877001C0000F8A9528
:10268000EAF7802FA1DFDFCF6AE070E0812F86DFDD
:10269000C4CFC77081E001C0880FCA95EAF7DDCFCB
:1026A0000F931F93CF93DF93883008F561111FC0FC
:1026B0004831E8F4C42FD0E0CC0FDD1F20E3829F27
:1026C000C00DD11D1124CE0189960E94A427082F88
:1026D00010E0102F0027CE018A960E94A4279801AF
:1026E000282BC901DF91CF911F910F91089580E0B0
:1026F00090E0F8CF0F931F93CF93DF93883070F55E
:10270000633060F524E0629F800111243CE0839FE8
:10271000000D111D112407551E4FC8014115A1F0D0
:102720000E94A427C82FD0E0DC2FCC2781E090E0C6
:10273000800F911F0E94A4279E01282BC901DF91C1
:10274000CF911F910F91089502960E94A427C82F40
:10275000D0E0DC2FCC2783E090E0EACF80E090E06F
:10276000EECF711107C0683160F4883050F4462F05
:1027700060E096CF7D3F41F4633018F441E088304B
:1027800050F080E090E008957C3FD9F76330C8F7BF
:102790008830B8F740E0AECFA0E0B0E0E2EDF3E182
:1027A0000C940F277C0100915F0380915E03082B3E
:1027B000C7E0D0E010E0C8010C2E02C095958795C7
:1027C0000A94E2F780FD09C02197A8F7D12C8D2D3E
:1027D000CDB7DEB7E7E00C942B27DC2EB7018C2FAA
:1027E000C0DF0E942005019779F3F1CF0F931F936B
:1027F000CF93FC01858100811181811581F06115E4
:1028000071F0C801C9DFC82F682FC8010E94BC033E
:10281000B8018C2FA6DFCF911F910F910895C801A9
:102820000E94D003C82FF4CFCF93DF93D82FC92FA6
:10283000B3DF6D2F7C2F95DF0E942005DF91CF91B4
:102840000895FC018481811599F080819181ECDFEC
:10285000282F92959F70963099F060F4925F9F7048
:10286000923030F4203F89F038F481E0283E38F08F
:1028700080E005C09A5FF3CF81E0243FC9F7089557
:1028800081E0283E20F0213FF9CF81E008950895AE
:10289000382F292FCB01A32FB22F873F21E092079A
:1028A000A105B10520F4875F9D4F0C94A42780E01B
:1028B0000895CF92DF92EF92FF92CF93DF93EC01D6
:1028C000C880D980EA80FB80C701B601E1DF9FEFB5
:1028D000C91AD90AE90AF90AC882D982EA82FB82AE
:1028E000DF91CF91FF90EF90DF90CF900895A4E01B
:1028F000B0E0EDE7F4E10C9409277C01FC01848150
:10290000811509F48FC061E0C70170DF8C01F70108
:102910008581811509F442C5980137572038310562
:1029200008F047C5003108F06DC066EF71E080E047
:1029300090E0AEDF811166C0812C912C5401011111
:1029400023C089829A82AB82BC828E010F5F1F4FA7
:10295000C801AFDFA02E912E811509F453C081303C
:1029600009F07AC0C801A5DF813009F5C801A1DFEF
:102970006AE070E0893311F460E570E00FDE8FE308
:102980009CE90197F1F71CC0F7EF8F16F1E09F0665
:10299000A104B104B9F1C501B4017ADF2FEF821AA5
:1029A000920AA20AB20A8111EFCF0150C8CF823039
:1029B00051F4C8017EDF6CDDEFE3FCE93197F1F7FC
:1029C00000C00000C5CF833021F4C80172DFB4DD40
:1029D000D6CF843079F4C8016CDFC12CD12C9AE0B9
:1029E000B92EE82FE053FF0B9F013A97F8F0C1147E
:1029F000D10441F5EFE3FCE93197F1F700C00000A5
:102A00008111A6CF809160038770811559F0F7017D
:102A10008581811539F08091620382FF03C082E0D5
:102A20000E940C042496EDE00C942527BC9CC00168
:102A3000BD9C900D11246901C80ED91E8A2D992DB7
:102A400038DFCFCFEFE9FFE03197F1F700C00000AA
:102A5000F1E0CF1AD108CBCFE82FF0E0E556FA4FDE
:102A60007490282F26952695269530E0F901E55794
:102A7000FA4FA4908770882EB12C082E02C0B5940E
:102A8000A7940A94E2F7F1E0AF22BB24F901E558DC
:102A9000FA4FC490D12C02C0D594C7948A95E2F71E
:102AA00041E0C422DD24F901E559FA4F9490A114C4
:102AB000B10409F040C0C114D10421F186EEE8DC74
:102AC0008FE39CE90197F1F700C000006AE070E035
:102AD000872D64DDEFE3FCE93197F1F700C00000DA
:102AE00086EE2ADD8FE39CE90197F1F700C0000034
:102AF000A114B10489F081EE1FDD8FE39CE90197F9
:102B0000F1F708C06AE070E0872D48DDEFE3FCE9EB
:102B10003197F1F700C00000E92DF0E0082C02C069
:102B2000F595E7950A94E2F7E0FF12CF6AE070E0CE
:102B30008CE234DD41CF81EEABDC8FE39CE9019781
:102B4000F1F700C00000C114D10409F0B7CF6AE06A
:102B500070E0872D23DDEFE3FCE93197F1F700C04A
:102B60000000C9CF26E241EE61EE3DDD4BCF27E20A
:102B700045EE65EEFACF26E241EE60EEF6CF27E2B3
:102B800045EE64EEF2CF26E241EE62EEEECF27E2B2
:102B900045EE66EEEACF28E241E0EBCF0631FCE7F6
:102BA0001F0709F002C180915A0369E2811165E3B0
:102BB00088EC91E00E942509CDC08091610381607D
:102BC00080936103609161037091620384E090E0FF
:102BD0000E94DA2777D916CF8091620388608093AC
:102BE0006203F0CF809161038260EACF809161033C
:102BF0008460E6CF809161038860E2CF80916203B8
:102C00008160EDCF809162038260E9CF80916103A2
:102C10008061D6CF809161038062D2CF80916103C1
:102C20008064CECF4FD9809161038068C9CF8091F5
:102C300061038C60C5CF809162038360D0CF8091A7
:102C400061038E7FBDCF80916203877FC8CF809163
:102C500061038D7FB5CF809161038B7FB1CF809170
:102C60006103877FADCF809162038E7FB8CF809163
:102C700062038D7FB4CF809161038F7EA1CF80915D
:102C800061038F7D9DCF809161038F7B99CF1AD98E
:102C9000809161038F7794CF80916103837F90CF80
:102CA000809162038C7F9BCF8091610382FB992787
:102CB00090F921E0922790FB82F990FB83F980CF75
:102CC00080916203982F909590FB80F990FB81F999
:102CD00086CF90916103892F8F7B96FF806470CFA0
:102CE000F1D890916103892F97FB87F9805868CFBD
:102CF00061E08EE090E00E94C02764CF60E0F9CFF1
:102D000090916103892F8F7E94FF806159CF9091BC
:102D10006103892F8E7F90FF816052CF9091620373
:102D2000892F877F93FF88605ACF80915B0306319C
:102D30002CE7120789F48A7A91E0811101C090E0B2
:102D400090935A0365E3811101C069E288EC91E038
:102D50000E940B0979D856CE8272F801E052F847EA
:102D6000EB30F10508F05BC0E350F84D0C94F7260A
:102D700081E00E94090746CE811581F10E94520729
:102D800041CE811581F10E9476073CCE811581F1FB
:102D90000E948B0737CE811581F10E94A30732CEA6
:102DA000811581F10E94B9072DCE80915B0382725B
:102DB000F801E054F847EF30F10508F046C0E85F4D
:102DC000F74D0C94F7260E94120781E00E94FF063F
:102DD00019CE0E942007F9CF811581F20E94480781
:102DE00011CE811581F20E946D070CCE811581F202
:102DF0000E947F0707CE811581F20E94970702CEBD
:102E0000811581F20E94AF07FDCD811529F00E9446
:102E1000DA07F8CD8115D9F30E94C307F3CD073740
:102E20003CE71307A1F182E008374CE7140781F172
:102E3000C801805E92458097B8F501155CE71507DB
:102E400009F0A5C03FD80E94F90D07378CE7180795
:102E500039F182E008379CE7190719F1C801805E53
:102E60009245809708F04DC00F7181E090E0FC0121
:102E700002C0EE0FFF1F0A95E2F78F016E2F83E06D
:102E800090E00E94C027802F0E944703BBCD81E0C5
:102E90000E944D0343E062E081E00E94E303B2CD73
:102EA00081E00E945703F6CF0B35FCE71F07A1F026
:102EB0000C352CE7120731F00A353CE7130771F4A3
:102EC00081E007C08091620382FB882780F991E04E
:102ED00089270E94800E96CD80E0FBCF01304CE721
:102EE000140771F003305CE7150721F001158CE73A
:102EF0001807A6CF6FEF7FEF80E090E00E94DA27FF
:102F000004D8F701C080D180C6010E94D003182FD9
:102F1000B601812F26DC0E942005D82E192FF7013B
:102F2000B580A680A2948FE0A8228091600387706C
:102F3000811509F1CB2CB114F9F0892F807F8034F1
:102F400069F080E28D0D8830B0F0892F807E80326C
:102F500029F4F2E0DF1678F0A11469F080916203A1
:102F600082FF09C082E00E940C0480916003877098
:102F7000CC24C3948111C12CE12FE295EF70103C59
:102F800008F06FC0F0E0E95EF74D0C94F726F7010A
:102F9000C080D180C60100DC182F682FC6010E94B6
:102FA000BC03B6CF012F0F70103110F00295007FD7
:102FB000B114B9F0011569F080E28D0D883010F080
:102FC000D11009C080915B03802B80935B030E942A
:102FD000240F8D2D40C080916303802B8093630369
:102FE000F6CF8D2DA9DA0115E1F180E28D0D883043
:102FF00010F0D11004C0802F0E94230406C0009559
:10300000809163038023809363030E94240F29C06F
:10301000012F0F70107F103211F00295007FD11434
:1030200051F021E0D21609F463C0B11409F46EC066
:10303000A11499F1CECF8091620382FD2AC0B11410
:1030400061F0011539F080915B03802B80935B0365
:103050000E94240F80E01CDA04C080E06DDA0111C8
:10306000CACFC11409F4BCC08091600380FDB8C010
:10307000F70115828695869586950E944D03C701B6
:1030800036DC809160038695869586950E9457036D
:10309000A7C0B11491F0A11003C0802F95DAE1CF41
:1030A00031E0A312DECF80915C03902F98230917A3
:1030B000C1F2802B80935C03D4CFA110D2CF802F9C
:1030C0008CDA90915C03802F8923811529F0802F61
:1030D0008095892380935C0380915D03902F9823D2
:1030E000911509F4BECF0095082300935D03B9CF75
:1030F000B11429F046E0A41608F0B3CFCECF55E0C6
:10310000A51608F0AECF802F68DAABCFA114D9F3A3
:1031100089E3D8120CC09FEFE7EEF3E09150E04056
:10312000F040E1F700C000008D2D06DA9ACF8FE362
:103130009CE90197F1F7F6CF812F869586958370EC
:10314000811569F0813009F08CCF8D2D912F93700E
:10315000B11002C080E090E00E94E30882CF8D2D84
:10316000912F9370B11002C080E090E00E94BB08E4
:1031700078CF6B2D8D2D0E946C0973CF812F8370BA
:1031800081113AC0B1102AC04D2D42954695477025
:10319000440F440F2D2D2F70042E01C0220F0A94CE
:1031A000EAF79D2D9071911541F08FE090E001C0FC
:1031B000880F4A95EAF7982F9095169516951370F3
:1031C0001230A9F0892F822B133031F080915E03E9
:1031D000113051F0292B82230E9447030E94AC0832
:1031E00060E0C70103DB1ECC822B892BF5CF292B96
:1031F00080915E038227F0CFB11469F110FFEECF0A
:103200004D2D429546954770440F440F2D2D2F703C
:10321000042E01C0220F0A94EAF79D2D907191159A
:1032200041F08FE090E001C0880F4A95EAF7982FAF
:1032300090951695169513701230A1F0892F822B58
:10324000133031F080915F03113049F0292B822334
:103250000E944A03C3CF823008F4C0CFD1CF822B63
:10326000892BF6CF292B80915F038227F1CF1F7026
:10327000B11431F0812F0E944D038D2DA5D9AECF11
:103280008D2DABD9812F0E945703A8CF92EFD9166D
:10329000A9F1E3EFDE1680F4F0EFDF16D1F021EFB5
:1032A000D21609F442C0B11409F461C0A11409F4A2
:1032B0005BC08D2DEDD892CF33EFD31631F144EFB3
:1032C000D41679F1B110F2CFA11063C0812F8F71A4
:1032D000DACFB11481F055E0A51608F07FCF1F7149
:1032E00081E090E0012E01C0880F0A94EAF79091E6
:1032F0005F038927ADCF86E0A816EFCF812F8F71AE
:10330000B110C1CF0E944D0369CF80E0B11409F420
:103310009FCF1F7181E0012E01C0880F0A94EAF748
:1033200097CF9091620392FD06C0812F8F71B114E7
:1033300009F4A9CFE7CFB11461F0812F8F7192FF0B
:10334000E1CF98E0899F90011124236020936003CE
:10335000D9CF81E00E940C04E2E0AE1608F43ECF23
:1033600082E00E940C043ACF812F8F71CBCFA11441
:1033700009F4ACCFF9E3DF120CC02FEF37EE43E0D6
:10338000215030404040E1F700C000008D2DD4D8DE
:1033900025CF8FE39CE90197F1F7F6CFF801E851CB
:1033A000FC47E730F10508F0F9CBED5DF74D0C94E3
:1033B000F726F801E851FC47E730F105B0F3109229
:1033C0005903C8019057839708F0AFCC84E090E090
:1033D0000E94AC279093620380936103F801E1504F
:1033E000F047E232F10508F0E8CBE65DF74D0C94CA
:1033F000F7268091A403803178F48091A30381158E
:1034000059F0E09165032091640330919F0340914E
:103410009E0357E02E1301C008956E2F70E05E9F4B
:10342000F0011124DF01AA59BC4F14968C91149716
:10343000811551F111968C911197831325C08C91B0
:10344000841322C015968C91159781111DC0129678
:103450008D919C91A091A003B091A1038A1B9B0B1D
:10346000883C910588F48091A4038F7080618093DB
:10347000A403E459FC4F80818F70806180838EE9C2
:1034800093E035DA0C940204FB013196E770C2CF69
:10349000ADE0B0E0EEE4FAE10C9409278C0186E09F
:1034A000F801DE01189601900D928A95E1F7F80176
:1034B000D080F580A280B38084819EE9892E93E03C
:1034C000992E7090A203711016C0811589F0F11425
:1034D00009F408C1C801B5D9811509F403C187E011
:1034E000F801AEE9B3E001900D928A95E1F781DF32
:1034F000FF24F39451C0C090A3032091A003309106
:10350000A103A501421B530BC11409F4BCC0483CE4
:10351000510508F076C0811559F380919F03918081
:10352000E090A403F0E1EF1608F056C0981214C022
:1035300080919E038D1110C0F11048C08E2D8F70A8
:1035400080618093A4038EE993E0D1D98091A40394
:10355000F8018683F12C20C0F11038C040E0692DBD
:103560008D2D0E94B40D40E0692D8D2D0E94B40D6B
:10357000F82E8111EFCF8885998556D9292F22956C
:103580002F70903470F49F70223098F09115A9F04C
:10359000F8019681903188F48F2D2D96EDE00C94F2
:1035A00025272A5F2F70223060F0C801A0D9FC2C9B
:1035B000F3CF911511F0811579F3805E883060F3B7
:1035C000F4CF803F48F3815F8330F9CF8091A4032B
:1035D00081608093A403BECF981238C080919E036F
:1035E0008D1134C0F11032C0F801E682C8017FD9D4
:1035F00087E0F801AEE9B3E001900D928A95E1F71A
:1036000077CFE090A40340E1E41648F48EE993E01C
:103610006ED987E0F40111928A95E9F79BCF811565
:1036200009F466CF90919F03818198130FC0809118
:103630009E038D110BC0F11009C0E682C80157D955
:1036400087E0F40111928A95E9F752CFC801F9D8C1
:10365000811509F447C0F11409F444C0F0E2EF16F3
:1036600008F43DCF80919E0390919F039A838983B4
:10367000BC82AB827D821E828091A4038F83CE01A7
:10368000019635D92CCF483C510508F0C2CF8115A1
:1036900009F42ECFF11431F190919F038181981399
:1036A00018C080919E038D1114C08091A40380FDE9
:1036B0009FCF803108F49CCF8683807F803F09F4C0
:1036C00095CF8681982F907F905F8F70892B86830E
:1036D0008DCFC801B6D8811102CF8091A40381603B
:1036E0008093A403C80103D903CFABE1B0E0EBE7BB
:1036F000FBE10C9413274E8B5F8B688F798F8A8F39
:103700009B8F9111109263031D8A86E0FE017696CD
:10371000DE011F9601900D928A95E1F78B89811544
:1037200041F061E0CE010F9661D861E0CE010F96C5
:103730005DD887E0FE013F96DE01189601900D925C
:103740008A95E1F7CE010896A3DE81112AC087E0B1
:10375000FE013896DE01119601900D928A95E1F7EF
:1037600020916403409165038C858115D1F030E090
:10377000C90101968770992748171906E9F097E063
:10378000929FD001939FB00D1124AA59BC4FFE0106
:10379000319601900D929A95E1F7809364030E940F
:1037A000020417E08091650390916403891312C0AD
:1037B0006B96E3E00C942F270E94620F1092640333
:1037C0001092650387E0EEE9F3E0DF011D928A9530
:1037D000E9F7E7CF189FC00111248A599C4F58DEA2
:1037E000811531F38091650390E0019687709927E8
:1037F00080936503D7CFA6E0B0E0E1E0FCE10C9454
:1038000012270E9437098C01809138039091390367
:103810008017910771F019821A820E943709BC0142
:1038200049815A8180E090E060DF10933903009372
:1038300038032696E4E00C942E2785E290E00E945F
:10384000A427863289F486E290E00E94A42789307A
:1038500059F487E290E00E94A42791E0843009F0B7
:1038600090E0892F8170089580E0FCCF48E050E01F
:1038700067E170E08FE293E00E94B12710924E0260
:103880000895EFE2F3E081E1808380911601909149
:103890001701A091180181839283A3838FE784830A
:1038A0008FEF8583E3CF4F925F926F927F928F92DB
:1038B0009F92AF92BF92CF92DF92EF92FF92C09011
:1038C0004102D0904202E0904302F09044020E94F4
:1038D000270A2B013C01530142018C189D08AE08B8
:1038E000BF080E94270A382F60934102709342025A
:1038F0008093430290934402A091EC02ECEEF2E03C
:103900008A2F20E04FEFC40ED41EE11CF11CC41816
:10391000D508E608F708A21332C08093EC02809124
:10392000450220911301223009F44BC0C0F521114A
:1039300045C0109200016093460270934702309395
:1039400048029093490289E2ECEEF2E0AFE4B2E083
:1039500001900D928A95E1F780917902811109C059
:1039600080912F03282F2370211519F0282F2695D9
:1039700026952093450281E08093130112C0418D6A
:10398000528DC416D506E104F10420F481502F5F56
:103990003296C1CF480D591D528F418FF8CF233039
:1039A000D9F0FF90EF90DF90CF90BF90AF909F90B5
:1039B0008F907F906F905F904F9008950E94D30BEF
:1039C000F0CF8093150180912F03837080931401B1
:1039D0000E94D30D83E0D0CF80914E02811146DF4B
:1039E000C0904602D0904702E0904802F090490211
:1039F0000E94270A6C197D098E099F0960317105A3
:103A00008105910570F210921301CBCF4F925F9216
:103A10006F927F92AF92BF92CF92DF92EF92FF921E
:103A20000F931F93CF93DF93CDB7DEB760970FB699
:103A3000F894DEBF0FBECDBF1A821982FE01339605
:103A40008EE0DF011D928A95E9F700E210E099E02F
:103A5000A92E92E0B92E27EF422E55245394612CC3
:103A6000712C73016201B1E14B16510461047104C0
:103A70001CF080E1C82ED12CA601B501CE01019623
:103A80000E94B127AC0CBD1C0D2C000CEE08FF08E9
:103A90004C185D086E087F080150104011F76096C1
:103AA0000FB6F894DEBF0FBECDBFDF91CF911F914F
:103AB0000F91FF90EF90DF90CF90BF90AF907F90ED
:103AC0006F905F904F9008956FEF85E290E00E94B5
:103AD000C0276FEF86E290E00E94C0276FEF87E279
:103AE00090E00E94C02760E088E290E00E94C0273A
:103AF0000E94E40E8BDF66E285E290E00E94C02720
:103B000069E086E290E00E94C02764E087E290E0EE
:103B10000C94C0278F929F92AF92BF92CF92DF9268
:103B2000EF92FF92CF93DF9300D000D0CDB7DEB7F6
:103B3000E2E3F1E02AE431E0812C912C54018394FA
:103B4000C12CD12C760141914F3F09F44CC0A42FD8
:103B5000A295AF70A05EB0E08C9190E04F7002C073
:103B6000959587954A95E2F7817081113CC0D50102
:103B7000C401C82AD92AEA2AFB2A880C991CAA1C43
:103B8000BB1C2E173F07F9F6C982DA82EB82FC8252
:103B900044E050E0BE016F5F7F4F8AE492E00E94F4
:103BA0006627892B29F1C0924A02D0924B02E092FB
:103BB0004C02F0924D0281E08093D2010E943709BD
:103BC0009093D1018093D0010F900F900F900F90A0
:103BD000DF91CF91FF90EF90DF90CF90BF90AF90AB
:103BE0009F908F90089580E090E0A0E0B0E0C1CF7A
:103BF0008091D201811541F3E090D001F090D10184
:103C00000E9437098E199F090597F0F244E050E0B1
:103C10006AE472E08BE792E00E946627892B81F0CC
:103C200080914A0290914B02A0914C02B0914D02BA
:103C300080937B0290937C02A0937D02B0937E02DE
:103C40001092D201C1CFCDB7DEB7ED970FB6F89481
:103C5000DEBF0FBECDBF85B7806885BF85B78068E2
:103C600085BF84B7877F84BF0FB6F894A8958091ED
:103C70006000886180936000109260000FBE80E851
:103C800090E00FB6F89480936100909361000FBEAE
:103C900081E08093060182E396E09093C7018093D0
:103CA000C60149E650E062E075E083E892E00E94D8
:103CB0005D278AE195E0A3E8B2E0FC01249131960A
:103CC000E49158962C9358975996EC9359970296ED
:103CD0001296F2E0A93BBF0781F70E94DC0A0E941E
:103CE0005A0D8091E20084608093E2007894809184
:103CF0003703811599F08091E9001091EC00179538
:103D0000112717958F70182B1092E9008091E80009
:103D100083FD0E94910F1F701093E90082E084BD23
:103D200093E095BD9AEF97BD80936E0086DD81117B
:103D300001C0CADEE1E2F3E088E0DF011D928A956E
:103D4000E9F783E08093200310E060E0812F0E9478
:103D5000F40761E0812F0E94F4071F5F1330A9F779
:103D6000EFE8F1E03197F1F700C0000010E080913A
:103D70002003181708F487C0A2E3B1E02AE431E079
:103D800041E050E08D918F3FA1F0E82FE295EF7078
:103D9000F0E061A18F708A0102C0000F111F8A95A7
:103DA000E2F7C801902F9095962391A392A1892BB9
:103DB00082A32A173B0731F784E0EBE7F2E0DF014B
:103DC000082F1D920A95E9F7EAE4F2E0DF011D925F
:103DD0008A95E9F780E090E00E94AC27833E9E4FF1
:103DE00019F42BDD81112AC063EE7EEF80E090E0B4
:103DF0000E94DA2760E082E090E00E94C02781E024
:103E000080935E0361E083E090E00E94C02760E061
:103E100074E184E090E00E94DA2733DD55DE40E073
:103E200050E0BA018FE090E00E94D22740E050E0DD
:103E3000BA0183E190E00E94D22718DD82E090E091
:103E40000E94A4278093150384E090E00E94AC2791
:103E500090936203809361035DDEEFEFF6E701E08C
:103E6000E150F0400040E1F700C0000053DE8091D7
:103E70007B0280FF1AC06FEF7FEF80E090E00E942E
:103E8000DA270E94F90D60E0812F0E941708082FA1
:103E900061E0812F0E941708E12FF0E0E35EFC4F04
:103EA000880F802B80831F5F62CF83E090E00E94A9
:103EB000A4270E9447030E94340810924F0240E159
:103EC00050E06FEF70E088E692E00E948427109245
:103ED000EC0240E150E06FEF70E085E093E00E947B
:103EE000842781E080934E0248E050E067E170E073
:103EF0008FE293E00E94942710924E0280912F034C
:103F0000843008F4BEDC87E091E090933B0380931B
:103F10003A03332433948E010F5F1F4F1EA70DA762
:103F20002DA41EA51FA78091370310E403E042E1F2
:103F3000F42E853009F494C0EDDD80911603909144
:103F40001703A0911803B0911903C0907B02D09081
:103F50007C02E0907D02F0907E028C159D05AE05FE
:103F6000BF0509F089C047DC9EDC809129038115DB
:103F700051F01092290380912303809324038091B0
:103F800021038093220300E0ECC180913703843049
:103F900009F437C088DC8091790281110DC00E943C
:103FA000D30B1092150180912F038370809314011D
:103FB0000E94D30D0093130130927902109278027F
:103FC00028E130E00FB6F894A895209360000FBE6A
:103FD0001093600083B7817F846083BF83B7816063
:103FE00083BF7894889583B78E7F83BF0FB6F8948C
:103FF000A8958091600088618093600010926000B5
:104000000FBE88DD80917B0290917C02A0917D02A1
:10401000B0917E0280937F0290938002A0938102F0
:10402000B0938202892B8A2B8B2BD1F080917A025C
:104030008115B1F030E139BDF9BC09B400FEFDCF06
:104040008091D8008F7D8093D8008091E0008260BD
:104050008093E0008091E00081FDFCCF0E94620F20
:1040600080913703853009F490CF0E94620F0E943F
:10407000AC081092790260CF8C019D010C251D25A2
:104080002E253F250AAF1BAF2CAF3DAFA12CB12C85
:10409000412C512C3201439438E0832E8AAD9BADE4
:1040A000ACADBDAD84219521A621B721892B8A2BEA
:1040B0008B2B09F4F6C01A2DA30192012C213D216E
:1040C0004E215F212AAB3BAB4CAB5DAB81E090E076
:1040D000A0E0B0E00A2C04C0880F991FAA1FBB1FE4
:1040E0000A94D2F78EAB9FABA8AFB9AF80917F0295
:1040F00090918002A0918102B09182022EA93FA9E5
:1041000048AD59AD82239323A423B523892B8A2B51
:104110008B2BC1F4A9821A820E9437099C838B835E
:104120003D8291E02AA93BA94CA95DA9232B242B10
:10413000252B09F490E09E8349815A816B817C8113
:104140008D81D3DA8AA99BA9ACA9BDA9912C892B11
:104150008A2B8B2BE1F0103141F0113109F454C05E
:1041600083E01F3019F0912C04C081E089839924E9
:104170009394F501ED57FD4F80818F3F41F0E1E0D1
:10418000F0E0EC0FFD1FE90DF11D80839394092DE4
:1041900010E08091EC02800F912F911D09976CF136
:1041A000A8E0B0E0A01BB10BB9ABA8ABB80163515C
:1041B0007D4FAD018DEE92E096D6B8016B507D4FEC
:1041C00048A959A985EF92E08ED648A959A9440F6C
:1041D000551FB801660F771F6B5F7C4F85E093E03A
:1041E00082D6B80163507D4F48A959A98DEF92E05E
:1041F0007AD6882D89198093EC026091EC028E01A9
:104200000F5F1F4F40E023C085E0B0CFF801519110
:104210008F01252F30E090E0FC01E451FD4FD901E2
:10422000AA0FBB1FA556BD4F7C917183220F331F70
:10423000D901AD57BD4F59962C912187518BFC0167
:10424000EE0FFF1FE451FD4F128E118E4F5F862F30
:10425000840F9412DBCF8093EC020AA91BA92CA92E
:104260003DA9012B022B032BE1F48EA99FA9A8AD38
:10427000B9AD80959095A095B09540917F025091F1
:104280008002609181027091820284239523A6238B
:10429000B72380937F0290938002A0938102B09312
:1042A0008202440C551C661C771C1FEFA11AB10A30
:1042B00028E1A216B10409F0F1CEC0921603D09203
:1042C0001703E0921803F09219030E94270A4CCEBC
:1042D00061E0802F0E941708F82E60E0802F0E9476
:1042E0001708FF0CF82A202F30E0D901A35EBC4F3D
:1042F000EC918E2F8370F81699F1EE0FEE0FEF29E7
:10430000EC93EF70F0E0E65BFE4F265E3C4F808161
:10431000D9019C91890F8C9384300CF467C0412F94
:1043200050E0BA016F5F7F4F63707727E61617067C
:1043300079F04F5D5C4F902F9F77FA0194831F5F58
:10434000137010932303909121039F5F9093210397
:10435000082E000C990B64E070E01AD5F9018083F7
:104360000F5FE0902403109123038091200308172E
:1043700008F4AECF90E00CEF23E0E22E3DEFF32EF9
:1043800042E0D42E8091240320912303281709F4BE
:104390006FC0E82FF0E0EB5DFC4F9081192F1F7785
:1043A0008F5F837080932403809122038F5F8093BB
:1043B000220397FD31C019A30AA30E943709BC014B
:1043C0008BA39CA3EDA23EA249A15AA183E091E058
:1043D0008CD9AFE3BCE91197F1F700C000001FA32F
:1043E00008A70E943709282F83E030C08D3F0CF0CA
:1043F000AFCF412F50E0BA016F5F7F4F63707727D7
:10440000E616170609F4A4CF4F5D5C4F902F906815
:10441000DA0114969C9393CF19A3FAA20E9437094C
:10442000BC018BA39CA3DDA23EA249A15AA182E0BC
:1044300091E05BD98FE39CE90197F1F700C00000A0
:104440001FA3F8A60E943709282F82E0622F792F38
:1044500029A79AA78BA71CA64FA158A590E045D9DC
:10446000EFE3FCE93197F1F700C0000091E08ACF5B
:1044700091110E94270A86E0E3E5F3E0A22DBFA593
:1044800001900D928A95E1F7B0905403E0905503A6
:10449000F0905603C0905703D090580310925503E4
:1044A0001092560310925703109258038E2D8F29A5
:1044B000811589F000912C0310912D030E9437097A
:1044C0009C01201B310B9091510391115EC02B3048
:1044D000310508F060C08C2D8D29811589F000917F
:1044E0002A0310912B030E9437099C01201B310BDA
:1044F00090915003911188C02B30310508F08AC08B
:10450000809154038B1116C080915503811511F0D1
:104510008E1110C090915603911511F09F110AC091
:1045200020915803211106C020915703211102C088
:10453000892B81110E94430986E0E22DFFA5A3E5A6
:10454000B3E001900D928A95E1F70E94AC0890913A
:104550002E03891721F080932E030E94270A809151
:104560003703843009F0DFCC83E08093E900809149
:10457000E80082FFD8CC8091E80085FD84C080915E
:10458000E8008B778093E800CECC2531310508F424
:10459000A2CF9F3F19F09F5F90935103E11459F010
:1045A0000E9467089FEF1E140CF491E0899F802DF4
:1045B000112480935503F11459F00E94670891E08B
:1045C0001F140CF09FEF899F802D112480935603B8
:1045D00080915503811509F47ECF10915603111572
:1045E00009F479CF0E945908811101C081E08093BC
:1045F0005503812F0E945908811519F080935603A5
:104600006ACF3092560367CF2135310508F478CF51
:104610009F3F19F09F5F90935003C11459F00E947F
:1046200087089FEF1C140CF491E0899F802D1124C2
:1046300080935703D11459F00E94870891E01D140C
:104640000CF09FEF899F802D112480935803809157
:104650005703811509F454CF10915803111509F42B
:104660004FCF0E945908811101C081E08093570308
:10467000812F0E945908811519F08093580340CF6B
:10468000309258033DCF0E94AC0A811571F08091A1
:10469000E8008B778093E8008981EFEFE80FE53140
:1046A00070F5F0E0E45BF74DA2C380E2E82EF12C58
:1046B000022D1FA58091E80085FD0AC08091E800C9
:1046C0008B778093E8000E94AC0A811599F3DFCFC5
:1046D0008091F100D8018C93B1E0EB1AF108B9F2A6
:1046E0000F5F1F4FE7CF1A828DE08B831BC08A813B
:1046F000833091F138F4813071F0823029F18FEFFD
:10470000898310C0843079F18630C9F71B821C82FE
:104710001D8288E01FC00E94270A6FD36B837C83B1
:104720008D839E83E0913A03F0913B03309709F427
:10473000FACB0284F385E02D309709F4F4CB60E2E4
:10474000822D9FA50995EFCB88E290E0FDD31B82D7
:104750001C821D828E83E6CF8B818111E3CF1C8268
:104760001D821E82DFCF1B82FACF8A81823031F018
:10477000853029F680E00E940907D4CF6B817C81C7
:104780008D819E813AD388E290E0FAD3CBCF4C81E1
:104790006B818A810E9450139827892798279E83CE
:1047A0008D83C0CF2D813E813227232732274C8134
:1047B0006B818A810E94970EB5CF0E94E40EB2CF22
:1047C0009A81933009F09BCF883009F439C0893041
:1047D00009F462C08B81833061F158F4813091F02B
:1047E000823009F09FCF8C8181111CC00E9420076C
:1047F00099CF843009F096CF8C8120E0409132032C
:104800006D810CC04C8126E9429F040E40E0411DA1
:1048100011248091300320E06091310390E00E94E8
:104820005B0780CF0E94120760E08C810E942C07FA
:1048300079CF8C818093330380E00E94FF0672CF92
:104840008B81833031F180F48130C1F0823009F006
:1048500069CF80912F03982F93708695869591113B
:1048600001C080E08C835ECF843009F05BCF809103
:1048700030038C83809131038D8354CF8091320338
:10488000EFEF8E9FC001112466E970E06DD26C835A
:1048900049CF80913303E6CF0E94361C43CF80E19D
:1048A0008A8340CF81E08A8387EF1FCF0A811B81F3
:1048B0001027012710278C80912CA12CB12C2801C6
:1048C000612C712C075F1D4FE12CF12C6E01F5E07E
:1048D000CF0ED11CC701A0E0B0E0E814F9041A041F
:1048E0001B0408F01FCF840D951DA61DB71D873F23
:1048F0009140A105B10558F4C8018E0D9F1D24D328
:10490000D6018D936D01BFEFEB1AFB0AE3CF80E078
:10491000F7CF0A811B811027012710278C80912C4B
:10492000A12CB12C2801612C712C075F1D4FC22CCA
:10493000DFA4E12CF12CC701A0E0B0E0E814F904F9
:104940001A041B0408F0EECE840D951DA61DB71D9C
:10495000873F9140A105B10538F4D60114966C91BA
:10496000C8018E0D9F1D0CD3BFEFEB1AFB0AEFEFB2
:10497000CE1ADE0AE0CF4AD8D5CE88E091CF8C801F
:10498000912CA12CB12CCA80DB80DC24CD24DC242A
:10499000E12CF12C412C512C32018E010B5F1F4F69
:1049A000481459046A047B0408F0BCCE80E0F0E8A7
:1049B000CF16F1E0DF06E104F10418F4C601899690
:1049C000C3D2D8018D938D01BFEF4B1A5B0A6B0ADE
:1049D0007B0AEFEFCE1ADE0AEE0AFE0AE1CF8C80E8
:1049E000912CA12CB12CCA80DB80DC24CD24DC24CA
:1049F000E12CF12C022D1FA5412C512C3201481421
:104A000059046A047B0408F08DCEF0E8CF16F1E07B
:104A1000DF06E104F10430F4D80114966C91C6016C
:104A20008996AED2BFEF4B1A5B0A6B0A7B0AEFEF97
:104A3000CE1ADE0AEE0AFE0A0F5F1F4FE0CF41E0FA
:104A40008C81811101C040E06B818A810E947A13C0
:104A5000A3CE2D813E8132272327322741E08C814E
:104A6000811101C040E06B818A810E94B90E5ACE4B
:104A70001F921FB61F9211248F939F93AF93BF93E2
:104A800080917802811113C08091E8019091E90131
:104A9000A091EA01B091EB014196A11DB11D809357
:104AA000E8019093E901A093EA01B093EB01BF9173
:104AB000AF919F918F911F901FBE1F901895789472
:104AC0001F921FB61F9211248F939F93AF93BF9392
:104AD0008091E8019091E901A091EA01B091EB0188
:104AE0000196A11DB11D8093E8019093E901A09367
:104AF000EA01B093EB01BF91AF919F918F911F900D
:104B00001FBE1F9018951F920F920FB60F9211247F
:104B10002F933F934F935F936F937F938F939F93C5
:104B2000AF93BF93EF93FF938091E10082FF09C0A1
:104B30008091E20082FF05C08091E1008B7F80932D
:104B4000E1008091DA0080FF24C08091D80080FFCE
:104B500020C08091DA008E7F8093DA008091D900A6
:104B600080FFA9C080E189BD82E189BD09B400FE52
:104B7000FDCF81E0809337038091D701811109C077
:104B80000E94DC0A0E945A0D8091E20084608093AA
:104B9000E2008091E10080FF1AC08091E20080FF76
:104BA00016C08091E2008E7F8093E2008091E20047
:104BB00080618093E2008091D80080628093D80069
:104BC00019BC85E08093370383E0809306018091D0
:104BD000E10084FF2FC08091E20084FF2BC080E1C0
:104BE00089BD82E189BD09B400FEFDCF8091D80066
:104BF0008F7D8093D8008091E1008F7E8093E100CB
:104C00008091E2008F7E8093E2008091E2008160DB
:104C10008093E2008091D601811509F452C084E0AE
:104C20008093370380913703843009F052C082E0CB
:104C3000809306018091E10083FF2CC08091E20007
:104C400083FF28C08091E100877F8093E10082E0AC
:104C5000809337031092D6018091E1008E7F80937C
:104C6000E1008091E2008E7F8093E2008091E2007B
:104C700080618093E20042E060E080E00E94230DCA
:104C80008091F00088608093F00081E080930601BD
:104C900080930501FF91EF91BF91AF919F918F910B
:104CA0007F916F915F914F913F912F910F900FBE28
:104CB0000F901F90189519BC109237031092D701CE
:104CC00068CF8091E30087FF02C083E0A9CF81E035
:104CD000A7CF81E0ADCF1F920F920FB60F92112494
:104CE000FF920F931F932F933F934F935F936F9375
:104CF0007F938F939F93AF93BF93CF93DF93EF9364
:104D0000FF9309EE10E0F8018081C091EC00C79597
:104D1000CC27C7958F70FC2EF82A1082C0EFD0E008
:104D20008881877F888378940E94910FF801108290
:104D3000888188608883CF2DCF70C083FF91EF91E9
:104D4000DF91CF91BF91AF919F918F917F916F91A3
:104D50005F914F913F912F911F910F91FF900F9075
:104D60000FBE0F901F901895AA1BBB1B51E107C0E7
:104D7000AA1FBB1FA617B70710F0A61BB70B881FEB
:104D8000991F5A95A9F780959095BC01CD0108957A
:104D900097FB072E16F4009406D077FD08D0E4DFC9
:104DA00007FC05D03EF4909581959F4F089570952E
:104DB00061957F4F0895052E97FB16F400940FD050
:104DC00057FD05D058D007FC02D046F408C05095D6
:104DD0004095309521953F4F4F4F5F4F08959095E7
:104DE0008095709561957F4F8F4F9F4F0895EE0F7F
:104DF000FF1F0590F491E02D0994692796276927F4
:104E000078278727782708952F923F924F925F92B5
:104E10006F927F928F929F92AF92BF92CF92DF92CA
:104E2000EF92FF920F931F93CF93DF93CDB7DEB72F
:104E3000CA1BDB0B0FB6F894DEBF0FBECDBF0994C3
:104E40002A88398848885F846E847D848C849B841A
:104E5000AA84B984C884DF80EE80FD800C811B8128
:104E6000AA81B981CE0FD11D0FB6F894DEBF0FBE57
:104E7000CDBFED010895A1E21A2EAA1BBB1BFD01B7
:104E80000DC0AA1FBB1FEE1FFF1FA217B307E40729
:104E9000F50720F0A21BB30BE40BF50B661F771F81
:104EA000881F991F1A9469F7609570958095909561
:104EB0009B01AC01BD01CF010895FB01DC0102C0E3
:104EC00005900D9241505040D8F70895FB01DC0148
:104ED00004C08D910190801921F441505040C8F7D1
:104EE000881B990B08956817790768F4FB01DC01AA
:104EF000E40FF51FA40FB51F02C002900E9241509F
:104F00005040D8F7089507C0DC0101C06D934150AF
:104F10005040E0F70895FB01DC0102C001900D92C2
:104F200041505040D8F70895DC01CB01FC01F999BC
:104F3000FECF06C0F2BDE1BDF89A319600B40D92E5
:104F400041505040B8F70895F999FECF92BD81BD08
:104F5000F89A992780B50895A8E1B0E042E050E0C2
:104F6000E5CFDC01A40FB51F4150504040F0CB010C
:104F7000840F951F2E9105D041505040D8F70895C9
:104F8000262FF999FECF92BD81BDF89A019700B402
:104F9000021639F01FBA20BD0FB6F894FA9AF99AA2
:104FA0000FBE08950396272FECDFEADF252FE9DFF8
:104FB000242FE7CF0196272FE4DFE2CFF894FFCF2D
:104FC00078097D097F098409940994099409940951
:104FD000940994099409940986098A098D0992090A
:104FE000A209A809AC096E1094109A1094109A1096
:104FF000EC100D119A1007121412B816BC16EC160C
:10500000C116F116C616F616CB16FB16D0160017EB
:10501000E316E916B816BC16EC16C116F116C6163C
:10502000F616CB16FB16D016001705170A17D2175F
:10503000D217081808189C18B91831183118BE185A
:10504000371946194619BB15BF15B215B715C31543
:10505000C715CB151F1687162716F215F6152B1632
:10506000FA152F163B16061680160A163F160E1650
:105070004316691612164716701617164C16541654
:10508000FE153316021637161B16501660167816C4
:105090007E16EC1523168E1673237723B523C723AC
:1050A000D223DD23E023E023E0237F237F234F244B
:1050B000522456248924BB24BD24BF24EF241F2559
:0250C0002925A0
:1050C20000FF00000001003409600E330A760E7BF7
:1050D2000E570E03FFFF00FF9644227D4B0129016C
:1050E200AC00A101BA01DA01F13033F03137FF052A
:1050F2000200F467949591F566969392F63697348A
:10510200353290C6FFFFFFFFFFFF00FF01000100E5
:1051120000FFFF0000010001FF00E200E900EA00D9
:10512200B500B600B700CD008301CC008A01920120
:1051320094012102230224022502260227022A02C6
:10514200B300B4006F0070009F01CB019F02A00268
:10515200E200E900EA00B500B600B700CD00830125
:10516200CC008A0192019401210223022402250229
:10517200260227022A02B300B4006F0070009F01CA
:06518200CB019F02A00218
:00000001FF
